{"abi":[{"type":"constructor","inputs":[{"name":"_usdcAddress","type":"address","internalType":"address"}],"stateMutability":"nonpayable"},{"type":"function","name":"adminMint","inputs":[{"name":"to","type":"address","internalType":"address"},{"name":"rideId","type":"uint256","internalType":"uint256"}],"outputs":[],"stateMutability":"nonpayable"},{"type":"function","name":"balanceOf","inputs":[{"name":"account","type":"address","internalType":"address"},{"name":"id","type":"uint256","internalType":"uint256"}],"outputs":[{"name":"","type":"uint256","internalType":"uint256"}],"stateMutability":"view"},{"type":"function","name":"balanceOfBatch","inputs":[{"name":"accounts","type":"address[]","internalType":"address[]"},{"name":"ids","type":"uint256[]","internalType":"uint256[]"}],"outputs":[{"name":"","type":"uint256[]","internalType":"uint256[]"}],"stateMutability":"view"},{"type":"function","name":"buySeat","inputs":[{"name":"rideId","type":"uint256","internalType":"uint256"}],"outputs":[],"stateMutability":"nonpayable"},{"type":"function","name":"createRide","inputs":[{"name":"rideId","type":"uint256","internalType":"uint256"},{"name":"pricePerSeat","type":"uint256","internalType":"uint256"}],"outputs":[],"stateMutability":"nonpayable"},{"type":"function","name":"isApprovedForAll","inputs":[{"name":"account","type":"address","internalType":"address"},{"name":"operator","type":"address","internalType":"address"}],"outputs":[{"name":"","type":"bool","internalType":"bool"}],"stateMutability":"view"},{"type":"function","name":"owner","inputs":[],"outputs":[{"name":"","type":"address","internalType":"address"}],"stateMutability":"view"},{"type":"function","name":"releaseFunds","inputs":[{"name":"rideId","type":"uint256","internalType":"uint256"},{"name":"organizer","type":"address","internalType":"address"}],"outputs":[],"stateMutability":"nonpayable"},{"type":"function","name":"renounceOwnership","inputs":[],"outputs":[],"stateMutability":"nonpayable"},{"type":"function","name":"ridePrices","inputs":[{"name":"","type":"uint256","internalType":"uint256"}],"outputs":[{"name":"","type":"uint256","internalType":"uint256"}],"stateMutability":"view"},{"type":"function","name":"safeBatchTransferFrom","inputs":[{"name":"from","type":"address","internalType":"address"},{"name":"to","type":"address","internalType":"address"},{"name":"ids","type":"uint256[]","internalType":"uint256[]"},{"name":"values","type":"uint256[]","internalType":"uint256[]"},{"name":"data","type":"bytes","internalType":"bytes"}],"outputs":[],"stateMutability":"nonpayable"},{"type":"function","name":"safeTransferFrom","inputs":[{"name":"from","type":"address","internalType":"address"},{"name":"to","type":"address","internalType":"address"},{"name":"id","type":"uint256","internalType":"uint256"},{"name":"value","type":"uint256","internalType":"uint256"},{"name":"data","type":"bytes","internalType":"bytes"}],"outputs":[],"stateMutability":"nonpayable"},{"type":"function","name":"setApprovalForAll","inputs":[{"name":"operator","type":"address","internalType":"address"},{"name":"approved","type":"bool","internalType":"bool"}],"outputs":[],"stateMutability":"nonpayable"},{"type":"function","name":"supportsInterface","inputs":[{"name":"interfaceId","type":"bytes4","internalType":"bytes4"}],"outputs":[{"name":"","type":"bool","internalType":"bool"}],"stateMutability":"view"},{"type":"function","name":"transferOwnership","inputs":[{"name":"newOwner","type":"address","internalType":"address"}],"outputs":[],"stateMutability":"nonpayable"},{"type":"function","name":"uri","inputs":[{"name":"","type":"uint256","internalType":"uint256"}],"outputs":[{"name":"","type":"string","internalType":"string"}],"stateMutability":"view"},{"type":"function","name":"usdc","inputs":[],"outputs":[{"name":"","type":"address","internalType":"contract IERC20"}],"stateMutability":"view"},{"type":"event","name":"ApprovalForAll","inputs":[{"name":"account","type":"address","indexed":true,"internalType":"address"},{"name":"operator","type":"address","indexed":true,"internalType":"address"},{"name":"approved","type":"bool","indexed":false,"internalType":"bool"}],"anonymous":false},{"type":"event","name":"OwnershipTransferred","inputs":[{"name":"previousOwner","type":"address","indexed":true,"internalType":"address"},{"name":"newOwner","type":"address","indexed":true,"internalType":"address"}],"anonymous":false},{"type":"event","name":"TransferBatch","inputs":[{"name":"operator","type":"address","indexed":true,"internalType":"address"},{"name":"from","type":"address","indexed":true,"internalType":"address"},{"name":"to","type":"address","indexed":true,"internalType":"address"},{"name":"ids","type":"uint256[]","indexed":false,"internalType":"uint256[]"},{"name":"values","type":"uint256[]","indexed":false,"internalType":"uint256[]"}],"anonymous":false},{"type":"event","name":"TransferSingle","inputs":[{"name":"operator","type":"address","indexed":true,"internalType":"address"},{"name":"from","type":"address","indexed":true,"internalType":"address"},{"name":"to","type":"address","indexed":true,"internalType":"address"},{"name":"id","type":"uint256","indexed":false,"internalType":"uint256"},{"name":"value","type":"uint256","indexed":false,"internalType":"uint256"}],"anonymous":false},{"type":"event","name":"URI","inputs":[{"name":"value","type":"string","indexed":false,"internalType":"string"},{"name":"id","type":"uint256","indexed":true,"internalType":"uint256"}],"anonymous":false},{"type":"error","name":"ERC1155InsufficientBalance","inputs":[{"name":"sender","type":"address","internalType":"address"},{"name":"balance","type":"uint256","internalType":"uint256"},{"name":"needed","type":"uint256","internalType":"uint256"},{"name":"tokenId","type":"uint256","internalType":"uint256"}]},{"type":"error","name":"ERC1155InvalidApprover","inputs":[{"name":"approver","type":"address","internalType":"address"}]},{"type":"error","name":"ERC1155InvalidArrayLength","inputs":[{"name":"idsLength","type":"uint256","internalType":"uint256"},{"name":"valuesLength","type":"uint256","internalType":"uint256"}]},{"type":"error","name":"ERC1155InvalidOperator","inputs":[{"name":"operator","type":"address","internalType":"address"}]},{"type":"error","name":"ERC1155InvalidReceiver","inputs":[{"name":"receiver","type":"address","internalType":"address"}]},{"type":"error","name":"ERC1155InvalidSender","inputs":[{"name":"sender","type":"address","internalType":"address"}]},{"type":"error","name":"ERC1155MissingApprovalForAll","inputs":[{"name":"operator","type":"address","internalType":"address"},{"name":"owner","type":"address","internalType":"address"}]},{"type":"error","name":"OwnableInvalidOwner","inputs":[{"name":"owner","type":"address","internalType":"address"}]},{"type":"error","name":"OwnableUnauthorizedAccount","inputs":[{"name":"account","type":"address","internalType":"address"}]}],"bytecode":{"object":"0x608060405234801561000f575f5ffd5b50604051612c96380380612c9683398181016040528101906100319190610255565b33604051806060016040528060298152602001612c6d6029913961005a8161012160201b60201c565b505f73ffffffffffffffffffffffffffffffffffffffff168173ffffffffffffffffffffffffffffffffffffffff16036100cb575f6040517f1e4fbdf70000000000000000000000000000000000000000000000000000000081526004016100c2919061028f565b60405180910390fd5b6100da8161013460201b60201c565b508060045f6101000a81548173ffffffffffffffffffffffffffffffffffffffff021916908373ffffffffffffffffffffffffffffffffffffffff160217905550506105b4565b806002908161013091906104e5565b5050565b5f60035f9054906101000a900473ffffffffffffffffffffffffffffffffffffffff1690508160035f6101000a81548173ffffffffffffffffffffffffffffffffffffffff021916908373ffffffffffffffffffffffffffffffffffffffff1602179055508173ffffffffffffffffffffffffffffffffffffffff168173ffffffffffffffffffffffffffffffffffffffff167f8be0079c531659141344cd1fd0a4f28419497f9722a3daafe3b4186f6b6457e060405160405180910390a35050565b5f5ffd5b5f73ffffffffffffffffffffffffffffffffffffffff82169050919050565b5f610224826101fb565b9050919050565b6102348161021a565b811461023e575f5ffd5b50565b5f8151905061024f8161022b565b92915050565b5f6020828403121561026a576102696101f7565b5b5f61027784828501610241565b91505092915050565b6102898161021a565b82525050565b5f6020820190506102a25f830184610280565b92915050565b5f81519050919050565b7f4e487b71000000000000000000000000000000000000000000000000000000005f52604160045260245ffd5b7f4e487b71000000000000000000000000000000000000000000000000000000005f52602260045260245ffd5b5f600282049050600182168061032357607f821691505b602082108103610336576103356102df565b5b50919050565b5f819050815f5260205f209050919050565b5f6020601f8301049050919050565b5f82821b905092915050565b5f600883026103987fffffffffffffffffffffffffffffffffffffffffffffffffffffffffffffffff8261035d565b6103a2868361035d565b95508019841693508086168417925050509392505050565b5f819050919050565b5f819050919050565b5f6103e66103e16103dc846103ba565b6103c3565b6103ba565b9050919050565b5f819050919050565b6103ff836103cc565b61041361040b826103ed565b848454610369565b825550505050565b5f5f905090565b61042a61041b565b6104358184846103f6565b505050565b5b818110156104585761044d5f82610422565b60018101905061043b565b5050565b601f82111561049d5761046e8161033c565b6104778461034e565b81016020851015610486578190505b61049a6104928561034e565b83018261043a565b50505b505050565b5f82821c905092915050565b5f6104bd5f19846008026104a2565b1980831691505092915050565b5f6104d583836104ae565b9150826002028217905092915050565b6104ee826102a8565b67ffffffffffffffff811115610507576105066102b2565b5b610511825461030c565b61051c82828561045c565b5f60209050601f83116001811461054d575f841561053b578287015190505b61054585826104ca565b8655506105ac565b601f19841661055b8661033c565b5f5b828110156105825784890151825560018201915060208501945060208101905061055d565b8683101561059f578489015161059b601f8916826104ae565b8355505b6001600288020188555050505b505050505050565b6126ac806105c15f395ff3fe608060405234801561000f575f5ffd5b5060043610610108575f3560e01c806385a79173116100a0578063e58306f91161006f578063e58306f9146102b2578063e985e9c5146102ce578063ee66a8a8146102fe578063f242432a1461031a578063f2fde38b1461033657610108565b806385a791731461022c5780638da5cb5b14610248578063a22cb46514610266578063e201a4401461028257610108565b80632eb2c2d6116100dc5780632eb2c2d6146101b85780633e413bee146101d45780634e1273f4146101f2578063715018a61461022257610108565b8062fdd58e1461010c57806301ffc9a71461013c5780630e89341c1461016c5780631af23a591461019c575b5f5ffd5b6101266004803603810190610121919061191b565b610352565b6040516101339190611968565b60405180910390f35b610156600480360381019061015191906119d6565b6103a7565b6040516101639190611a1b565b60405180910390f35b61018660048036038101906101819190611a34565b610488565b6040516101939190611acf565b60405180910390f35b6101b660048036038101906101b19190611aef565b61051a565b005b6101d260048036038101906101cd9190611d1d565b610526565b005b6101dc6105cd565b6040516101e99190611e43565b60405180910390f35b61020c60048036038101906102079190611f1c565b6105f2565b6040516102199190612049565b60405180910390f35b61022a6106fc565b005b61024660048036038101906102419190612069565b61070f565b005b610250610744565b60405161025d91906120b6565b60405180910390f35b610280600480360381019061027b91906120f9565b61076c565b005b61029c60048036038101906102979190611a34565b610782565b6040516102a99190611968565b60405180910390f35b6102cc60048036038101906102c7919061191b565b610797565b005b6102e860048036038101906102e39190612137565b6107be565b6040516102f59190611a1b565b60405180910390f35b61031860048036038101906103139190611a34565b61084c565b005b610334600480360381019061032f9190612175565b6109ad565b005b610350600480360381019061034b9190612208565b610a54565b005b5f5f5f8381526020019081526020015f205f8473ffffffffffffffffffffffffffffffffffffffff1673ffffffffffffffffffffffffffffffffffffffff1681526020019081526020015f2054905092915050565b5f7fd9b67a26000000000000000000000000000000000000000000000000000000007bffffffffffffffffffffffffffffffffffffffffffffffffffffffff1916827bffffffffffffffffffffffffffffffffffffffffffffffffffffffff1916148061047157507f0e89341c000000000000000000000000000000000000000000000000000000007bffffffffffffffffffffffffffffffffffffffffffffffffffffffff1916827bffffffffffffffffffffffffffffffffffffffffffffffffffffffff1916145b80610481575061048082610ad8565b5b9050919050565b60606002805461049790612260565b80601f01602080910402602001604051908101604052809291908181526020018280546104c390612260565b801561050e5780601f106104e55761010080835404028352916020019161050e565b820191905f5260205f20905b8154815290600101906020018083116104f157829003601f168201915b50505050509050919050565b610522610b41565b5050565b5f61052f610bc8565b90508073ffffffffffffffffffffffffffffffffffffffff168673ffffffffffffffffffffffffffffffffffffffff1614158015610574575061057286826107be565b155b156105b85780866040517fe237d9220000000000000000000000000000000000000000000000000000000081526004016105af929190612290565b60405180910390fd5b6105c58686868686610bcf565b505050505050565b60045f9054906101000a900473ffffffffffffffffffffffffffffffffffffffff1681565b6060815183511461063e57815183516040517f5b0599910000000000000000000000000000000000000000000000000000000081526004016106359291906122b7565b60405180910390fd5b5f835167ffffffffffffffff81111561065a57610659611b31565b5b6040519080825280602002602001820160405280156106885781602001602082028036833780820191505090505b5090505f5f90505b84518110156106f1576106c76106af8287610cc390919063ffffffff16565b6106c28387610cd690919063ffffffff16565b610352565b8282815181106106da576106d96122de565b5b602002602001018181525050806001019050610690565b508091505092915050565b610704610b41565b61070d5f610ce9565b565b8060055f8481526020019081526020015f20819055506107403083600460405180602001604052805f815250610dac565b5050565b5f60035f9054906101000a900473ffffffffffffffffffffffffffffffffffffffff16905090565b61077e610777610bc8565b8383610e41565b5050565b6005602052805f5260405f205f915090505481565b61079f610b41565b6107ba8282600160405180602001604052805f815250610dac565b5050565b5f60015f8473ffffffffffffffffffffffffffffffffffffffff1673ffffffffffffffffffffffffffffffffffffffff1681526020019081526020015f205f8373ffffffffffffffffffffffffffffffffffffffff1673ffffffffffffffffffffffffffffffffffffffff1681526020019081526020015f205f9054906101000a900460ff16905092915050565b5f60055f8381526020019081526020015f205490505f81116108a3576040517f08c379a000000000000000000000000000000000000000000000000000000000815260040161089a90612355565b60405180910390fd5b5f6108ae3084610352565b116108ee576040517f08c379a00000000000000000000000000000000000000000000000000000000081526004016108e5906123bd565b60405180910390fd5b60045f9054906101000a900473ffffffffffffffffffffffffffffffffffffffff1673ffffffffffffffffffffffffffffffffffffffff166323b872dd3330846040518463ffffffff1660e01b815260040161094c939291906123db565b6020604051808303815f875af1158015610968573d5f5f3e3d5ffd5b505050506040513d601f19601f8201168201806040525081019061098c9190612424565b506109a9303384600160405180602001604052805f815250610faa565b5050565b5f6109b6610bc8565b90508073ffffffffffffffffffffffffffffffffffffffff168673ffffffffffffffffffffffffffffffffffffffff16141580156109fb57506109f986826107be565b155b15610a3f5780866040517fe237d922000000000000000000000000000000000000000000000000000000008152600401610a36929190612290565b60405180910390fd5b610a4c8686868686610faa565b505050505050565b610a5c610b41565b5f73ffffffffffffffffffffffffffffffffffffffff168173ffffffffffffffffffffffffffffffffffffffff1603610acc575f6040517f1e4fbdf7000000000000000000000000000000000000000000000000000000008152600401610ac391906120b6565b60405180910390fd5b610ad581610ce9565b50565b5f7f01ffc9a7000000000000000000000000000000000000000000000000000000007bffffffffffffffffffffffffffffffffffffffffffffffffffffffff1916827bffffffffffffffffffffffffffffffffffffffffffffffffffffffff1916149050919050565b610b49610bc8565b73ffffffffffffffffffffffffffffffffffffffff16610b67610744565b73ffffffffffffffffffffffffffffffffffffffff1614610bc657610b8a610bc8565b6040517f118cdaa7000000000000000000000000000000000000000000000000000000008152600401610bbd91906120b6565b60405180910390fd5b565b5f33905090565b5f73ffffffffffffffffffffffffffffffffffffffff168473ffffffffffffffffffffffffffffffffffffffff1603610c3f575f6040517f57f447ce000000000000000000000000000000000000000000000000000000008152600401610c3691906120b6565b60405180910390fd5b5f73ffffffffffffffffffffffffffffffffffffffff168573ffffffffffffffffffffffffffffffffffffffff1603610caf575f6040517f01a83514000000000000000000000000000000000000000000000000000000008152600401610ca691906120b6565b60405180910390fd5b610cbc85858585856110b0565b5050505050565b5f60208202602084010151905092915050565b5f60208202602084010151905092915050565b5f60035f9054906101000a900473ffffffffffffffffffffffffffffffffffffffff1690508160035f6101000a81548173ffffffffffffffffffffffffffffffffffffffff021916908373ffffffffffffffffffffffffffffffffffffffff1602179055508173ffffffffffffffffffffffffffffffffffffffff168173ffffffffffffffffffffffffffffffffffffffff167f8be0079c531659141344cd1fd0a4f28419497f9722a3daafe3b4186f6b6457e060405160405180910390a35050565b5f73ffffffffffffffffffffffffffffffffffffffff168473ffffffffffffffffffffffffffffffffffffffff1603610e1c575f6040517f57f447ce000000000000000000000000000000000000000000000000000000008152600401610e1391906120b6565b60405180910390fd5b5f5f610e28858561115c565b91509150610e395f878484876110b0565b505050505050565b5f73ffffffffffffffffffffffffffffffffffffffff168273ffffffffffffffffffffffffffffffffffffffff1603610eb1575f6040517fced3e100000000000000000000000000000000000000000000000000000000008152600401610ea891906120b6565b60405180910390fd5b8060015f8573ffffffffffffffffffffffffffffffffffffffff1673ffffffffffffffffffffffffffffffffffffffff1681526020019081526020015f205f8473ffffffffffffffffffffffffffffffffffffffff1673ffffffffffffffffffffffffffffffffffffffff1681526020019081526020015f205f6101000a81548160ff0219169083151502179055508173ffffffffffffffffffffffffffffffffffffffff168373ffffffffffffffffffffffffffffffffffffffff167f17307eab39ab6107e8899845ad3d59bd9653f200f220920489ca2b5937696c3183604051610f9d9190611a1b565b60405180910390a3505050565b5f73ffffffffffffffffffffffffffffffffffffffff168473ffffffffffffffffffffffffffffffffffffffff160361101a575f6040517f57f447ce00000000000000000000000000000000000000000000000000000000815260040161101191906120b6565b60405180910390fd5b5f73ffffffffffffffffffffffffffffffffffffffff168573ffffffffffffffffffffffffffffffffffffffff160361108a575f6040517f01a8351400000000000000000000000000000000000000000000000000000000815260040161108191906120b6565b60405180910390fd5b5f5f611096858561115c565b915091506110a787878484876110b0565b50505050505050565b6110bc8585858561118c565b5f73ffffffffffffffffffffffffffffffffffffffff168473ffffffffffffffffffffffffffffffffffffffff1614611155575f6110f8610bc8565b90506001845103611144575f6111175f86610cd690919063ffffffff16565b90505f61112d5f86610cd690919063ffffffff16565b905061113d83898985858961151f565b5050611153565b6111528187878787876116ce565b5b505b5050505050565b60608060405191506001825283602083015260408201905060018152826020820152604081016040529250929050565b80518251146111d657815181516040517f5b0599910000000000000000000000000000000000000000000000000000000081526004016111cd9291906122b7565b60405180910390fd5b5f6111df610bc8565b90505f5f90505b83518110156113de575f6112038286610cd690919063ffffffff16565b90505f6112198386610cd690919063ffffffff16565b90505f73ffffffffffffffffffffffffffffffffffffffff168873ffffffffffffffffffffffffffffffffffffffff161461133c575f5f5f8481526020019081526020015f205f8a73ffffffffffffffffffffffffffffffffffffffff1673ffffffffffffffffffffffffffffffffffffffff1681526020019081526020015f20549050818110156112e857888183856040517f03dee4c50000000000000000000000000000000000000000000000000000000081526004016112df949392919061244f565b60405180910390fd5b8181035f5f8581526020019081526020015f205f8b73ffffffffffffffffffffffffffffffffffffffff1673ffffffffffffffffffffffffffffffffffffffff1681526020019081526020015f2081905550505b5f73ffffffffffffffffffffffffffffffffffffffff168773ffffffffffffffffffffffffffffffffffffffff16146113d157805f5f8481526020019081526020015f205f8973ffffffffffffffffffffffffffffffffffffffff1673ffffffffffffffffffffffffffffffffffffffff1681526020019081526020015f205f8282546113c991906124bf565b925050819055505b50508060010190506111e6565b506001835103611499575f6113fc5f85610cd690919063ffffffff16565b90505f6114125f85610cd690919063ffffffff16565b90508573ffffffffffffffffffffffffffffffffffffffff168773ffffffffffffffffffffffffffffffffffffffff168473ffffffffffffffffffffffffffffffffffffffff167fc3d58168c5ae7397731d063d5bbf3d657854427343f4c083240f7aacaa2d0f62858560405161148a9291906122b7565b60405180910390a45050611518565b8373ffffffffffffffffffffffffffffffffffffffff168573ffffffffffffffffffffffffffffffffffffffff168273ffffffffffffffffffffffffffffffffffffffff167f4a39dc06d4c0dbc64b70af90fd698a233a518aa5d07e595d983b8c0526c8f7fb868660405161150f9291906124f2565b60405180910390a45b5050505050565b5f8473ffffffffffffffffffffffffffffffffffffffff163b11156116c6578373ffffffffffffffffffffffffffffffffffffffff1663f23a6e6187878686866040518663ffffffff1660e01b815260040161157f959493929190612579565b6020604051808303815f875af19250505080156115ba57506040513d601f19601f820116820180604052508101906115b791906125e5565b60015b61163b573d805f81146115e8576040519150601f19603f3d011682016040523d82523d5f602084013e6115ed565b606091505b505f81510361163357846040517f57f447ce00000000000000000000000000000000000000000000000000000000815260040161162a91906120b6565b60405180910390fd5b805160208201fd5b63f23a6e6160e01b7bffffffffffffffffffffffffffffffffffffffffffffffffffffffff1916817bffffffffffffffffffffffffffffffffffffffffffffffffffffffff1916146116c457846040517f57f447ce0000000000000000000000000000000000000000000000000000000081526004016116bb91906120b6565b60405180910390fd5b505b505050505050565b5f8473ffffffffffffffffffffffffffffffffffffffff163b1115611875578373ffffffffffffffffffffffffffffffffffffffff1663bc197c8187878686866040518663ffffffff1660e01b815260040161172e959493929190612610565b6020604051808303815f875af192505050801561176957506040513d601f19601f8201168201806040525081019061176691906125e5565b60015b6117ea573d805f8114611797576040519150601f19603f3d011682016040523d82523d5f602084013e61179c565b606091505b505f8151036117e257846040517f57f447ce0000000000000000000000000000000000000000000000000000000081526004016117d991906120b6565b60405180910390fd5b805160208201fd5b63bc197c8160e01b7bffffffffffffffffffffffffffffffffffffffffffffffffffffffff1916817bffffffffffffffffffffffffffffffffffffffffffffffffffffffff19161461187357846040517f57f447ce00000000000000000000000000000000000000000000000000000000815260040161186a91906120b6565b60405180910390fd5b505b505050505050565b5f604051905090565b5f5ffd5b5f5ffd5b5f73ffffffffffffffffffffffffffffffffffffffff82169050919050565b5f6118b78261188e565b9050919050565b6118c7816118ad565b81146118d1575f5ffd5b50565b5f813590506118e2816118be565b92915050565b5f819050919050565b6118fa816118e8565b8114611904575f5ffd5b50565b5f81359050611915816118f1565b92915050565b5f5f6040838503121561193157611930611886565b5b5f61193e858286016118d4565b925050602061194f85828601611907565b9150509250929050565b611962816118e8565b82525050565b5f60208201905061197b5f830184611959565b92915050565b5f7fffffffff0000000000000000000000000000000000000000000000000000000082169050919050565b6119b581611981565b81146119bf575f5ffd5b50565b5f813590506119d0816119ac565b92915050565b5f602082840312156119eb576119ea611886565b5b5f6119f8848285016119c2565b91505092915050565b5f8115159050919050565b611a1581611a01565b82525050565b5f602082019050611a2e5f830184611a0c565b92915050565b5f60208284031215611a4957611a48611886565b5b5f611a5684828501611907565b91505092915050565b5f81519050919050565b5f82825260208201905092915050565b8281835e5f83830152505050565b5f601f19601f8301169050919050565b5f611aa182611a5f565b611aab8185611a69565b9350611abb818560208601611a79565b611ac481611a87565b840191505092915050565b5f6020820190508181035f830152611ae78184611a97565b905092915050565b5f5f60408385031215611b0557611b04611886565b5b5f611b1285828601611907565b9250506020611b23858286016118d4565b9150509250929050565b5f5ffd5b7f4e487b71000000000000000000000000000000000000000000000000000000005f52604160045260245ffd5b611b6782611a87565b810181811067ffffffffffffffff82111715611b8657611b85611b31565b5b80604052505050565b5f611b9861187d565b9050611ba48282611b5e565b919050565b5f67ffffffffffffffff821115611bc357611bc2611b31565b5b602082029050602081019050919050565b5f5ffd5b5f611bea611be584611ba9565b611b8f565b90508083825260208201905060208402830185811115611c0d57611c0c611bd4565b5b835b81811015611c365780611c228882611907565b845260208401935050602081019050611c0f565b5050509392505050565b5f82601f830112611c5457611c53611b2d565b5b8135611c64848260208601611bd8565b91505092915050565b5f5ffd5b5f67ffffffffffffffff821115611c8b57611c8a611b31565b5b611c9482611a87565b9050602081019050919050565b828183375f83830152505050565b5f611cc1611cbc84611c71565b611b8f565b905082815260208101848484011115611cdd57611cdc611c6d565b5b611ce8848285611ca1565b509392505050565b5f82601f830112611d0457611d03611b2d565b5b8135611d14848260208601611caf565b91505092915050565b5f5f5f5f5f60a08688031215611d3657611d35611886565b5b5f611d43888289016118d4565b9550506020611d54888289016118d4565b945050604086013567ffffffffffffffff811115611d7557611d7461188a565b5b611d8188828901611c40565b935050606086013567ffffffffffffffff811115611da257611da161188a565b5b611dae88828901611c40565b925050608086013567ffffffffffffffff811115611dcf57611dce61188a565b5b611ddb88828901611cf0565b9150509295509295909350565b5f819050919050565b5f611e0b611e06611e018461188e565b611de8565b61188e565b9050919050565b5f611e1c82611df1565b9050919050565b5f611e2d82611e12565b9050919050565b611e3d81611e23565b82525050565b5f602082019050611e565f830184611e34565b92915050565b5f67ffffffffffffffff821115611e7657611e75611b31565b5b602082029050602081019050919050565b5f611e99611e9484611e5c565b611b8f565b90508083825260208201905060208402830185811115611ebc57611ebb611bd4565b5b835b81811015611ee55780611ed188826118d4565b845260208401935050602081019050611ebe565b5050509392505050565b5f82601f830112611f0357611f02611b2d565b5b8135611f13848260208601611e87565b91505092915050565b5f5f60408385031215611f3257611f31611886565b5b5f83013567ffffffffffffffff811115611f4f57611f4e61188a565b5b611f5b85828601611eef565b925050602083013567ffffffffffffffff811115611f7c57611f7b61188a565b5b611f8885828601611c40565b9150509250929050565b5f81519050919050565b5f82825260208201905092915050565b5f819050602082019050919050565b611fc4816118e8565b82525050565b5f611fd58383611fbb565b60208301905092915050565b5f602082019050919050565b5f611ff782611f92565b6120018185611f9c565b935061200c83611fac565b805f5b8381101561203c5781516120238882611fca565b975061202e83611fe1565b92505060018101905061200f565b5085935050505092915050565b5f6020820190508181035f8301526120618184611fed565b905092915050565b5f5f6040838503121561207f5761207e611886565b5b5f61208c85828601611907565b925050602061209d85828601611907565b9150509250929050565b6120b0816118ad565b82525050565b5f6020820190506120c95f8301846120a7565b92915050565b6120d881611a01565b81146120e2575f5ffd5b50565b5f813590506120f3816120cf565b92915050565b5f5f6040838503121561210f5761210e611886565b5b5f61211c858286016118d4565b925050602061212d858286016120e5565b9150509250929050565b5f5f6040838503121561214d5761214c611886565b5b5f61215a858286016118d4565b925050602061216b858286016118d4565b9150509250929050565b5f5f5f5f5f60a0868803121561218e5761218d611886565b5b5f61219b888289016118d4565b95505060206121ac888289016118d4565b94505060406121bd88828901611907565b93505060606121ce88828901611907565b925050608086013567ffffffffffffffff8111156121ef576121ee61188a565b5b6121fb88828901611cf0565b9150509295509295909350565b5f6020828403121561221d5761221c611886565b5b5f61222a848285016118d4565b91505092915050565b7f4e487b71000000000000000000000000000000000000000000000000000000005f52602260045260245ffd5b5f600282049050600182168061227757607f821691505b60208210810361228a57612289612233565b5b50919050565b5f6040820190506122a35f8301856120a7565b6122b060208301846120a7565b9392505050565b5f6040820190506122ca5f830185611959565b6122d76020830184611959565b9392505050565b7f4e487b71000000000000000000000000000000000000000000000000000000005f52603260045260245ffd5b7f52696465206e6f742061637469766500000000000000000000000000000000005f82015250565b5f61233f600f83611a69565b915061234a8261230b565b602082019050919050565b5f6020820190508181035f83015261236c81612333565b9050919050565b7f4e6f207365617473206c656674000000000000000000000000000000000000005f82015250565b5f6123a7600d83611a69565b91506123b282612373565b602082019050919050565b5f6020820190508181035f8301526123d48161239b565b9050919050565b5f6060820190506123ee5f8301866120a7565b6123fb60208301856120a7565b6124086040830184611959565b949350505050565b5f8151905061241e816120cf565b92915050565b5f6020828403121561243957612438611886565b5b5f61244684828501612410565b91505092915050565b5f6080820190506124625f8301876120a7565b61246f6020830186611959565b61247c6040830185611959565b6124896060830184611959565b95945050505050565b7f4e487b71000000000000000000000000000000000000000000000000000000005f52601160045260245ffd5b5f6124c9826118e8565b91506124d4836118e8565b92508282019050808211156124ec576124eb612492565b5b92915050565b5f6040820190508181035f83015261250a8185611fed565b9050818103602083015261251e8184611fed565b90509392505050565b5f81519050919050565b5f82825260208201905092915050565b5f61254b82612527565b6125558185612531565b9350612565818560208601611a79565b61256e81611a87565b840191505092915050565b5f60a08201905061258c5f8301886120a7565b61259960208301876120a7565b6125a66040830186611959565b6125b36060830185611959565b81810360808301526125c58184612541565b90509695505050505050565b5f815190506125df816119ac565b92915050565b5f602082840312156125fa576125f9611886565b5b5f612607848285016125d1565b91505092915050565b5f60a0820190506126235f8301886120a7565b61263060208301876120a7565b81810360408301526126428186611fed565b905081810360608301526126568185611fed565b9050818103608083015261266a8184612541565b9050969550505050505056fea26469706673582212209297b1640708274426e27fef79e8e7a18b6da39182a7d0671ddefa51856ce9e364736f6c634300081e003368747470733a2f2f6170692e70696e636865722e61692f6d657461646174612f7b69647d2e6a736f6e","linkReferences":{}},"methodIdentifiers":{"adminMint(address,uint256)":"e58306f9","balanceOf(address,uint256)":"00fdd58e","balanceOfBatch(address[],uint256[])":"4e1273f4","buySeat(uint256)":"ee66a8a8","createRide(uint256,uint256)":"85a79173","isApprovedForAll(address,address)":"e985e9c5","owner()":"8da5cb5b","releaseFunds(uint256,address)":"1af23a59","renounceOwnership()":"715018a6","ridePrices(uint256)":"e201a440","safeBatchTransferFrom(address,address,uint256[],uint256[],bytes)":"2eb2c2d6","safeTransferFrom(address,address,uint256,uint256,bytes)":"f242432a","setApprovalForAll(address,bool)":"a22cb465","supportsInterface(bytes4)":"01ffc9a7","transferOwnership(address)":"f2fde38b","uri(uint256)":"0e89341c","usdc()":"3e413bee"},"id":0}